:020000040000FA
:04000000ADEF00F070
:060008002B82AFEF00F0B7
:100018002B80D8CF1DF0E8CF1EF0E0CF1FF09EAAAE
:1000280018EF00F01AEF00F0A5EF00F0075009E113
:10003800650E065CD8A023EF00F025EF00F02BEF4B
:1000480000F0000E186E000E016E000E026E1850C1
:10005800D8A431EF00F033EF00F03BEF00F0AECF63
:1000680001F0000E076E000E066E3BEF00F018045C
:10007800D8A441EF00F043EF00F04BEF00F0AECF13
:1000880002F0000E076E000E066E4BEF00F0182A05
:100098005A0E0118D8A453EF00F055EF00F059EFAD
:1000A80000F0010E146E59EF00F0390E0118D8A4B3
:1000B80060EF00F062EF00F069EF00F002C00CF0B2
:1000C8000D6A010E2A6E69EF00F0350E0118D8A4EA
:1000D80070EF00F072EF00F08AEF00F002C00CF051
:1000E8000D6A020E2A6E82B27CEF00F07FEF00F0FC
:1000F800010E80EF00F0000EFF0A1C6E1C468250B5
:100108001C18FD0B1C18826E8AEF00F0200E0118D7
:10011800D8A491EF00F093EF00F09EEF00F002C03A
:1001280022F0236AD89022362336D89022362336F6
:100138009EEF00F0AECF16F0010E176E9E9AA5EF57
:1001480000F01FC0E0FF1EC0E8FF1DC0D8FF2B90C5
:10015800100090EF02F0064A072AF2A4B6EF00F06A
:10016800B8EF00F0F3EF01F082800E4A0F2A0F502B
:1001780009E1650E0E5CD8A0C4EF00F0C6EF00F0F0
:10018800DEEF00F0000E0F6E000E0E6E08500C5CD5
:1001980009500D58D8B0D3EF00F0D5EF00F0DAEFE2
:1001A80000F00806D8A00906DEEF00F0084A092A80
:1001B800DEEF00F00A4A0B2A08500A5C09500B5877
:1001C800D8A0E9EF00F0EBEF00F0EEEF01F0C3EF9D
:1001D80001F0C3EF01F0000E816E880E6B6E010E08
:1001E800816E2A04D8A4FBEF00F0FDEF00F001EFC8
:1001F80001F0020E286EE8EF01F0020E2A18D8A4CA
:1002080008EF01F00AEF01F0E8EF01F0060E286EA2
:10021800E8EF01F0E8EF01F0E8EF01F0000E816E81
:10022800880E6B6E200E816E2A04D8A41EEF01F092
:1002380020EF01F024EF01F0030E286EE8EF01F043
:10024800020E2A18D8A42BEF01F02DEF01F0E8EFE9
:1002580001F0010E286EE8EF01F0E8EF01F0E8EF99
:1002680001F0000E816E820E6B6E200E816E2A04E4
:10027800D8A441EF01F043EF01F047EF01F0040E7D
:10028800286EE8EF01F0020E2A18D8A44EEF01F00C
:1002980050EF01F0E8EF01F0020E286EE8EF01F0F0
:1002A800E8EF01F0E8EF01F0000E816E820E6B6E50
:1002B800040E816E2A04D8A464EF01F066EF01F001
:1002C8006AEF01F0050E286EE8EF01F0020E2A1819
:1002D800D8A471EF01F073EF01F0E8EF01F0030E1D
:1002E800286EE8EF01F0E8EF01F0E8EF01F0000E0A
:1002F800816EA00E6B6E040E816E2A04D8A487EF5F
:1003080001F089EF01F08DEF01F0060E286EE8EF9D
:1003180001F0020E2A18D8A494EF01F096EF01F02C
:10032800E8EF01F0040E286EE8EF01F0E8EF01F0C5
:10033800E8EF01F0000E816EA00E6B6E010E816E6B
:100348002A04D8A4AAEF01F0ACEF01F0B0EF01F055
:10035800010E286EE8EF01F0020E2A18D8A4B7EFB4
:1003680001F0B9EF01F0E8EF01F0050E286EE8EFB3
:1003780001F0E8EF01F0E8EF01F0E8EF01F02850B4
:100388001A6E1B6A1B50000AD8B4CDEF01F0E8EFD3
:1003980001F01A50010AD8B4EFEF00F0030AD8B4FC
:1003A80012EF01F0010AD8B435EF01F0070AD8B40A
:1003B80058EF01F0010AD8B47BEF01F0030AD8B472
:1003C8009EEF01F0E8EF01F0000E0B6E000E0A6ED2
:1003D800EEEF01F0F294F28A8290F3EF01F02B92A3
:1003E8001100DDEC02F009EC03F0CEEC02F000ECB9
:1003F80003F0F5EC02F0E9EC02F0010E296E010EB3
:10040800266E000E096E000E086E000E0D6E000EB0
:100418000C6E020E2A6E2DEF02F02DEF02F0000E88
:10042800216E000E206E2AEC03F0000E216E000EE5
:10043800206E22EC03F0000E216E000E206E1AECE6
:1004480003F0000E216E000E206E12EC03F02DEF6B
:1004580002F0020E2618D8B434EF02F036EF02F09C
:1004680013EF02F080EF02F080EF02F00C500D1055
:10047800D8A441EF02F043EF02F057EF02F0000E6C
:10048800216E000E206E2AEC03F0000E216E000E85
:10049800206E22EC03F0000E216E000E206E1AEC86
:1004A80003F080EF02F022C020F023C021F02AECF4
:1004B80003F022C020F023C021F022EC03F022C078
:1004C80020F023C021F01AEC03F0ADEC02F020502C
:1004D800156E1404D8A473EF02F075EF02F080EFE4
:1004E80002F0000E146E1550BFEC02F080EF02F01F
:1004F80080EF02F080EF02F02904D8B486EF02F012
:1005080088EF02F03AEF02F02DEF02F02DEF02F043
:100518002DEF02F0ADEF00F0640EF66E060EF76EEA
:10052800000EF86E00EE22F010EE07F00900F5CF8D
:10053800EEFFE550E150FAE100EE01F0190EEE6A27
:10054800E806FDE12B902B92000EF86E0001F5EF06
:1005580001F0010EC26EC280C282B3EF02F0C2B2D5
:10056800B8EF02F0BAEF02F0B3EF02F0C290C4CFD6
:1005780020F0216A1200206EC2EF02F09EA8C7EF99
:1005880002F0C9EF02F0C2EF02F0CBEF02F020C098
:10059800ADFF1200000E7F6E800E7E6E700E6F6EC5
:1005A800010E6E6E000E6A6E7B68010E7A6E6B8E9F
:1005B80012009268800E936EB80E946E0C0E956EB3
:1005C800000EC26E0F0EC16E1200010EC26E000E3A
:1005D800C16E110EC06EB868000E996E9E9CC282E4
:1005E8001200F28AF294F1849E9A9F9A9D8AF29C54
:1005F800D08EF28CF28E1200560EAF6EAC8AAC849E
:10060800AB8EAB88AA86AC981200C10ED56E000ED0
:10061800D76E000ED66EF28AF29412006E8220C057
:1006280073FF21503F0B726E6E9212006E8220C0D3
:1006380075FF21503F0B746E6E9212006E8220C0BF
:1006480077FF21503F0B766E6E9212006E8220C0AB
:1006580079FF21503F0B786E6E9212005E01F40113
:0306680002C801C4
:020000040020DA
:08000000FFFFFFFFFFFFFFFF00
:020000040030CA
:0E000000FF060D3E1C1980FF0FC00FE00F40E1
:00000001FF
